:0400000081EF07F095
:1000080000C015F0640ED66E200EF26E010E0201CD
:100018001027000E112312231323010E0527000EAB
:10002800062307230823000E0101711902E1140EAB
:100038007019D8A4BAD0272B2751020802E2010E62
:10004800276F846A8098809AA9D0000E020102194D
:1000580002E1FF0E01194DE1809A8088800E006E42
:10006800800E01013F19005C02E13E51000807E3E0
:10007800000EFC1902E1FF0EFB1901E111D0800E00
:10008800006E800E3F19005C02E13E51200807E334
:10009800000EFC1902E1000EFB1901E101D003D0AA
:1000A800040E846E26D0800E006E800E3F19005C10
:1000B80002E13E51190807E3000EFC1902E1FF0EA8
:1000C800FB1901E111D0800E006E800E3F19005C13
:1000D80002E13E514D0807E3000EFC1902E1000E53
:1000E800FB1901E101D003D0020E846E02D0010E8B
:1000F800846E5BD00101000EFE1902E1FF0EFD19AE
:100108004CE18098808A800E006E800E5419005C45
:1001180002E15351000807E3000EFC1902E1FF0E4B
:10012800FB1901E111D0800E006E800E5419005C9D
:1001380002E15351200807E3000EFC1902E1000E0A
:10014800FB1901E101D003D0040E846E26D0800E85
:10015800006E800E5419005C02E15351190807E340
:10016800000EFC1902E1FF0EFB1901E111D0800E0F
:10017800006E800E5419005C02E153514D0807E3EC
:10018800000EFC1902E1000EFB1901E101D003D0B9
:10019800020E846E02D0010E846E07D02751010A28
:1001A800D8B453D72751020AA5E015C000F01100B2
:1001B800080E0C6E230E0D6E0D2EFED70C2EFCD7DE
:0201C800120023
:0401CA00000012001F
:0C01CE00100E0D6E0D2EFED7000012006A
:1001DA0002013FBF02D0819601D081863FBD02D085
:1001EA00819401D081843FBB02D0819201D0818267
:1001FA003FB902D0819001D081800101FFB102D0C4
:10020A00818801D08198818ADBDF819A02013FB718
:10021A0002D0819601D081863FB502D0819401D067
:10022A0081843FB302D0819201D081823FB102D052
:10023A00819001D081800101FFB102D0818801D073
:10024A008198818ABDDF819AFFA102D0B0DF01D0F7
:04025A00B9DF1200F6
:0E025E00A50E0D6E0D2EFED700000000120042
:10026C00086A096A100E0C6E0134083609360450FF
:10027C00085E0550D8A0053C095ED8B007D00450E4
:10028C0008260550D8B0053C0926D8900036013612
:06029C000C2EEAD712004F
:0A02A200070E0D6E0D2EFED71200A0
:1002AC000134083609360450085E0550D8A0053CC8
:1002BC00095E003601360F0E0C6E01340836093615
:1002CC00045000A006D0085E0550D8A0053C095E7D
:1002DC0005D008260550D8B0053C09260036013655
:1002EC000C2EEBD700B006D0045008260550D8B021
:0802FC00053C09260000120078
:1003040010D0800E0201386F1AD0C00E386F17D08B
:10031400940E386F14D0D40E386F11D0800E386F0D
:100324000ED002013851010AECE03851020AEDE026
:100334003851030AEDE03851040AEDE0EFD73905EE
:10034400006E3851002600C038F20101FF8100C060
:100354003FF241DFFF913AC23FF23DDFFF811200DD
:1003640002013C6B050E3C5D0AE23C513A25E16E0C
:10037400000E3B21E26E200EE66E3C2BF3D73C517F
:100384003A25E16E000E3B21E26EE66A3C073C51E1
:100394003A253D6F000E3B213E6F0A0E046E000E9F
:1003A400056E38C200F039C201F05EDF08C000F00B
:1003B40009C001F0300E00263DC2E1FF3EC2E2FF5B
:1003C40000C0E6FF0A0E046E000E056E38C200F08F
:1003D40039C201F049DF00C038F201C039F2000E21
:1003E400011802E1000E001801E102D03C07CFD74A
:0203F4001200F5
:1003F6000B1E0A1E091E081E082AD8B4092AD8B4DC
:080406000A2AD8B40B2A1200E7
:10040E0002013E6B3AC201F0010E006E015004E093
:10041E0000360090FF0FFBD700C03DF238C2E9FF57
:10042E0039C2EAFF0050EE14016E0152010ED8A43B
:10043E00000E006E3C51001A18E03B51000804E219
:10044E0007DF06DF3B07F9D738C2E9FF39C2EAFFFB
:10045E003D51EE14016E0152010ED8A4000E006E35
:10046E003C51001A02E0FF0E3E6F3EC200F0120039
:10047E000450085E0550D8A0053C095E0650D8A071
:10048E00063C0A5E0750D8A0073C0B5E0336070EEB
:10049E000C6E0334083609360A360B36045003A0A8
:1004AE000ED0085E0550D8A0053C095E0650D8A0B7
:1004BE00063C0A5E0750D8A0073C0B5E0DD00826FE
:1004CE000550D8B0053C09260650D8B0063C0A2681
:1004DE000750D8B0073C0B2603360C2EDAD7023461
:1004EE00083609360A360B36045003A00ED0085EC5
:1004FE000550D8A0053C095E0650D8A0063C0A5E01
:10050E000750D8A0073C0B5E0DD008260550D8B07A
:10051E00053C09260650D8B0063C0A260750D8B02E
:10052E00073C0B260236070E0C6E023408360936CF
:10053E000A360B36045002A00ED0085E0550D8A025
:10054E00053C095E0650D8A0063C0A5E0750D8A0AE
:10055E00073C0B5E0DD008260550D8B0053C092689
:10056E000650D8B0063C0A260750D8B0073C0B26DA
:10057E0002360C2EDAD70134083609360A360B3617
:10058E00045002A00ED0085E0550D8A0053C095EAE
:10059E000650D8A0063C0A5E0750D8A0073C0B5E5A
:1005AE000DD008260550D8B0053C09260650D8B007
:1005BE00063C0A260750D8B0073C0B260136070E1C
:1005CE000C6E0134083609360A360B36045001A07B
:1005DE000ED0085E0550D8A0053C095E0650D8A086
:1005EE00063C0A5E0750D8A0073C0B5E0DD00826CD
:1005FE000550D8B0053C09260650D8B0063C0A2650
:10060E000750D8B0073C0B2601360C2EDAD7003433
:10061E00083609360A360B36045001A00ED0085E95
:10062E000550D8A0053C095E0650D8A0063C0A5ECF
:10063E000750D8A0073C0B5E0DD008260550D8B049
:10064E00053C09260650D8B0063C0A260750D8B0FD
:10065E00073C0B260036070E0C6E003408360936A2
:10066E000A360B36045000A00ED0085E0550D8A0F6
:10067E00053C095E0650D8A0063C0A5E0750D8A07D
:10068E00073C0B5E0DD008260550D8B0053C092658
:10069E000650D8B0063C0A260750D8B0073C0B26A9
:1006AE0000360C2EDAD700B00ED0045008260550B6
:1006BE00D8B0053C09260650D8B0063C0A2607508D
:0806CE00D8B0073C0B26120016
:0E06D6000101FF9138C23FF27DDDFF8112006D
:1006E400700E02013F6F77DD0201006B00510708B5
:1006F40012E3030E0025F66E2C0EF76E000EF722A1
:10070400000EF86E000EF8220900F5CF38F2E1DF92
:100714000201002BEBD7020E3F6F5DDD2EC238F2D3
:0E0724002FC239F2060E02013A6FEADD120012
:10073200600E02013F6F50DD0201006B005107089D
:1007420012E3130E0025F66E2C0EF76E000EF72242
:10075200000EF86E000EF8220900F5CF38F2BADF6B
:100762000201002BEBD7020E3F6F36DD2EC238F2AC
:0E0772002FC239F2040E02013A6FC3DD1200ED
:100780000450000A08E10550000A05E1FF0E006E62
:100790007F0E016E12000D6A096A086A015000108E
:1007A000D8B4000C015005180A6E0ABE0D1E0B6A63
:1007B00005AE05D0041E051E042AD8B4052A01AED4
:1007C00005D0001E011E002AD8B4012A01500510D0
:1007D0000A6E0ABE10D06ADD0BB020D00DAE000C40
:1007E000001E011E002AD8B4012A081E091E082A6C
:1007F000D8B4092A000C05AE0DD001BE07D00150B7
:10080000096E0050086E016A006AE8D7016A006A42
:10081000002A000C011E001E0B2ADDD7082AD8B4BE
:10082000092A0450085CD8A4D9D70550095CD8A47B
:10083000D5D7096A086A002AD8B4012A01AECED7F2
:060840000000FF0C120095
:10084600500E02013F6FC6DC0201006B0051070823
:1008560012E3330E0025F66E2C0EF76E000EF7220D
:10086600000EF86E000EF8220900F5CF38F230DFE0
:100876000201002BEBD7020E3F6FACDC2EC238F222
:0E0886002FC239F2020E02013A6F39DD120064
:10089400680E02013F6F9FDC0201006B00510708E4
:1008A40012E31B0E0025F66E2C0EF76E000EF722D7
:1008B400000EF86E000EF8220900F5CF38F209DFB9
:1008C4000201002BEBD7020E3F6F85DC2EC238F2FB
:0E08D4002FC239F2050E02013A6F12DD12003A
:1008E200A69C00C2A9FFA69EA680A8CF00F0120077
:1008F2000900F5CFE6FF0006FBE10106F9E112006F
:10090200939A93989390939293949396819A8198C1
:1009120081968194819281904EDC4DDC4CDC818207
:100922008180818A51DC819A46DC818A4DDC819A00
:1009320042DC818A49DC819A3EDC8190818A44DCF6
:10094200819A39DC818A40DC819A81928186818A0E
:100952003BDC819A30DC81968180818A35DC819A08
:100962008190818A31DC819A26DC818A2DDC819A10
:100972008180818A29DC819A1EDC8190818A24DC33
:10098200819A8186818481828180818A1DDC819A1B
:0809920012DC0101FF811200DB
:10099A00830E0201386F0F0E396F2EC23AF2010E22
:1009AA003B6F010E3C6F2EDD005211E02EC200F0AB
:1009BA002FC201F0003600900136790E0024E16E54
:1009CA00010E0120E26E010EE66E000EE66E2EC2E8
:1009DA0000F02FC201F0003600900136790E002493
:1009EA00E96E010E0120EA6EEE50EE1020E0830E51
:1009FA00386F0F0E396F2EC23AF2010E3B6F3C6B05
:100A0A0001DD005214E02EC200F02FC201F00036C0
:100A1A0000900136790E0024E16E010E0120E26E8B
:100A2A00E66AE66A010E006E000E016E1200006AA6
:040A3A00016A12003B
:100A3E000B6A0A6A096A00500402F4CF09F0F3CF78
:100A4E0008F001500502F4CF0BF0F3CF0AF000507E
:100A5E000502F3500926F4500A22E86A0B220150CF
:100A6E000402F3500926F4500A22E86A0B2208C049
:100A7E0000F009C001F00AC002F00BC003F0120032
:100A8E000450000A12E10550000A0FE10650000A58
:100A9E000CE10750000A09E1FF0E006EFF0E016E19
:100AAE00FF0E026E7F0E036E12000C6A07BE0C2A3A
:100ABE000D6A0B6A0A6A096A086A0350021001106D
:100ACE000010D8B484D0035007180E6E0EBE0D1E43
:100ADE0007AE0BD0041E051E061E071E042AD8B430
:100AEE00052AD8B4062AD8B4072A03AE0BD0001EA6
:100AFE00011E021E031E002AD8B4012AD8B4022AEF
:100B0E00D8B4032A035007100E6E0EBE1CD0B0DCF4
:100B1E000CBE36D00DAE5BD0001E011E021E031E93
:100B2E00002AD8B4012AD8B4022AD8B4032A081E3F
:100B3E00091E0A1E0B1E082AD8B4092AD8B40A2A7E
:100B4E00D8B40B2A44D007AE15D003BE0DD0035037
:100B5E000B6E02500A6E0150096E0050086E036A49
:100B6E00026A016A006AD6D7036A026A016A006ADB
:100B7E00002A000C031E021E011E001E0C8EC7D77B
:100B8E00082AD8B4092AD8B40A2AD8B40B2A045091
:100B9E00085CD8A4BFD70550095CD8A4BBD70650B3
:100BAE000A5CD8A4B7D707500B5CD8A4B3D70B6A8E
:100BBE000A6A096A086A002AD8B4012AD8B4022A35
:100BCE00D8B4032A03AEA6D70E6A0E88FF0C0E6A9F
:0A0BDE000CA001D009DC000F12008A
:100BE800580E02013F6FEDEC00F00201006B00515E
:100BF800070812E32B0E0025F66E2C0EF76E000E7A
:100C0800F722000EF86E000EF8220900F5CF38F230
:100C18005EDD0201002BEBD7020E3F6FEDEC00F01A
:100C28002EC238F22FC239F2030E02013A6F82EC5B
:040C380001F01200B5
:100C3C00A6A202D00000FCD7A69C2EC2A9FF2FC2F0
:100C4C00A8FFA69EA684F2CF00F0F29E550EA76ECA
:100C5C00AA0EA76EA68200BE02D0F29E01D0F28E22
:040C6C00A694120038
:100C70000201346B356B2EC236F22FC237F2800E72
:100C80002F19006E800E005C02E1000E2E5D0BE25B
:100C9000010E346F000E356F2E510008366F2FC2D3
:100CA00037F2000E375736C238F237C239F230C247
:100CB0003AF231C23BF2B2EC01F0060E326F000E96
:100CC000336F000E006E3351005C02E132510008B8
:100CD00019E232513025E16E33513121E26E010EBD
:100CE000325D006E000E3359016E00503025E96E02
:100CF00001503121EA6EEECFE6FF010E325F000EA9
:100D0000335BDFD730C2E1FF31C2E2FF200EE66E77
:100D1000345135111AE0326B336B32513025E96EA4
:100D200033513121EA6EEE50200A03E1324B332B6E
:100D3000F4D7010E325F000E335B32513025E16E85
:0C0D400033513121E26E2D0EE66E1200E0
:100D4C00400E02013F6FEDEC00F00201006B005110
:100D5C00070812E30B0E0025F66E2C0EF76E000E34
:100D6C00F722000EF86E000EF8220900F5CF38F2CB
:100D7C00ACDC0201002BEBD7020E3F6FEDEC00F068
:100D8C002EC238F22FC239F202013A6B82EC01F01A
:020D9C00120043
:100D9E00220E0C6E086A096A0A6A0B6A0C06D8B42F
:100DAE001FD0D8900B320A32093208320332023287
:100DBE0001320032D8A0F2D70C06D8B409D00450B4
:100DCE0008260550092206500A2207500B22EAD7A0
:100DDE00045008260550092206500A2207500B22FD
:020DEE001200F1
:100DF00010D0800E02012E6F1AD0C00E2E6F17D0A9
:100E0000940E2E6F14D0D40E2E6F11D0800E2E6F34
:100E10000ED002012E51010AECE02E51020AEDE043
:100E20002E51030AEDE02E51040AEDE0EFD72F0515
:100E3000006E2E51002600C02EF200C03FF2EDECF5
:100E400000F0FF910201006B00513025E96E000EA9
:100E50003121EA6EEE520CE000513025E96E000EB1
:100E60003121EA6EEECF38F236DC0201002BECD7EE
:060E70000101FF811200E8
:100E7600480E02013F6FEDEC00F00201006B0051DD
:100E8600070812E3230E0025F66E2C0EF76E000EF1
:100E9600F722000EF86E000EF8220900F5CF38F2A0
:100EA60017DC0201002BEBD7020E3F6FEDEC00F0D2
:100EB6002EC238F22FC239F2010E02013A6F82ECCD
:040EC60001F0120025
:100ECA00C26A070EC012C08E00C200F0003600903F
:100EDA00003600900050C212C28051EC01F0C2826A
:100EEA00C2A201D0FDD7C4CF01F0006AC3500012DC
:080EFA00000E0112C29012006B
:100F02001EEC16F06E0ED36E070EB46E020EC26E9B
:100F12000B0EC16EC40ED56E640ED66EA00EF26EAE
:100F22000F0E926E936A946AFC0E956E966A9250B8
:100F32008016816A826A95508316846AE1DC030E08
:100F42000B6E8A0E0C6E550E0D6E0D2EFED70C2EEC
:100F5200FCD70B2EFAD700000000010E02013F6FF2
:100F6200EDEC00F00C0E02013F6FEDEC00F0800E94
:100F72000201006FB5DC0050FF0AD8B4828E010175
:100F8200776B786B000E785D02E1040E775D72E29A
:100F9200010E02012E6F030E2F6F8C0E306F010EA9
:100FA200316F25DF020E02012E6F080E2F6F890EA0
:100FB200306F010E316F1BDF020E0B6E450E0C6E91
:100FC200A90E0D6E0D2EFED70C2EFCD70B2EFAD7C6
:100FD20000000000020E02012E6F070E2F6F720E2C
:100FE200306F010E316F03DF020E0B6E450E0C6E79
:100FF200A90E0D6E0D2EFED70C2EFCD70B2EFAD796
:1010020000000000020E02012E6F060E2F6F670E07
:10101200306F010E316FEBDE020E0B6E450E0C6E61
:10102200A90E0D6E0D2EFED70C2EFCD70B2EFAD765
:1010320000000000020E02012E6F050E2F6F5E0EE1
:10104200306F010E316FD3DE020E0B6E450E0C6E49
:10105200A90E0D6E0D2EFED70C2EFCD70B2EFAD735
:1010620000000000010E02013F6FEDEC00F0774B33
:10107200782B88D76EC170F16FC171F146EF14F011
:10108200010E02012E6F030E2F6FD90E306F010E6B
:10109200316FADDE010E02012E6F010E2F6F4AEC91
:1010A20004F0020E02012E6F030E2F6FCF0E306F6F
:1010B200010E316F9CDE020E02012E6F100E2F6F99
:1010C20023EC04F0010171516F1902E16E517019A4
:1010D2001DE1060E02012E6F000E2F6F5DDC005027
:1010E200011005E0010E01016E6F000E6F6F030E1D
:1010F20002012E6F000E2F6F4FDC0050011005E031
:10110200140E01016E6F000E6F6FDCD707EF15F042
:10111200010E02012E6F030E2F6FEF0E306F010EC4
:10112200316F65DE010E02012E6F100E2F6FA2DEEF
:10113200020E02012E6F030E2F6FE50E306F010EAD
:10114200316F55DE020E02012E6F010E2F6F4AEC37
:1011520004F0020E02012E6F100E2F6F23EC04F02A
:10116200010171516F1902E16E5170192AE1070EE6
:1011720002012E6F000E2F6F0FDC0050011003E0F2
:1011820001016E6B6F6B060E02012E6F000E2F6F48
:1011920003DC0050011005E0160E01016E6F000E17
:1011A2006F6F030E02012E6F000E2F6FCDEC04F055
:1011B2000050011005E0150E01016E6F000E6F6FF9
:1011C200CFD707EF15F0010E02012E6F030E2F6F1E
:1011D200C50E306F010E316F0ADE010E02012E6F55
:1011E200100E2F6F47DE020E02012E6F030E2F6FBD
:1011F200A60E306F010E316FFADD020E02012E6F64
:10120200010E2F6F4AEC04F0020E02012E6F100E37
:101212002F6F23EC04F0010171516F1902E16E513D
:1012220070192EE1070E02012E6F000E2F6FCDEC0A
:1012320004F00050011005E0010E01016E6F000E76
:101242006F6F060E02012E6F000E2F6FCDEC04F0B1
:101252000050011005E0020E01016E6F000E6F6F6B
:10126200030E02012E6F000E2F6FCDEC04F0005022
:10127200011005E0170E01016E6F000E6F6FCBD7E4
:1012820007EF15F0010E02012E6F030E2F6F990E5C
:10129200306F010E316FABDD010E02012E6F100EA9
:1012A2002F6FE8DD020E02012E6F030E2F6FBC0EB0
:1012B200306F010E316F9BDD020E02012E6F010EA7
:1012C2002F6F4AEC04F0020E02012E6F100E2F6FE8
:1012D20023EC04F0010171516F1902E16E51701992
:1012E2002EE1070E02012E6F000E2F6FCDEC04F0DF
:1012F2000050011005E0160E01016E6F000E6F6FB7
:10130200060E02012E6F000E2F6FCDEC04F000507E
:10131200011005E0030E01016E6F000E6F6F030EE8
:1013220002012E6F000E2F6FCDEC04F00050011061
:1013320005E0050E01016E6F000E6F6FCBD707EF50
:1013420015F0010E02012E6F030E2F6FB30E306FD8
:10135200010E316F4CDD010E02012E6F100E2F6F48
:1013620089DD020E02012E6F030E2F6F550E306FB4
:10137200010E316F3CDD020E02012E6F010E2F6F46
:101382004AEC04F0010171516F1902E16E517019BA
:101392001FE1070E02012E6F000E2F6FCDEC04F03D
:1013A2000050011005E0020E01016E6F000E6F6F1A
:1013B200030E02012E6F000E2F6FCDEC04F00050D1
:1013C200011005E0040E01016E6F000E6F6FDAD797
:1013D20007EF15F0829E080E02013F6FEDEC00F060
:1013E200030007EF15F0010E02012E6F030E2F6F9F
:1013F200AB0E306F000E316FFADC010E02012E6F60
:10140200010E2F6F4AEC04F0020E02012E6F030E42
:101412002F6F9E0E306F000E316FE9DC020E02015B
:101422002E6F100E2F6F23EC04F0010171516F1912
:1014320002E16E5170193BE1060E02012E6F000EA1
:101442002F6FCDEC04F00050011005E0060E0101F3
:101452006E6F000E6F6F020E02012E6F000E2F6F65
:10146200CDEC04F00050011005E0020E01016E6F98
:10147200000E6F6F030E02012E6F000E2F6FCDEC68
:1014820004F00050011012E0810E006F71EC04F0C4
:101492000050FF0A06E10A0E01016E6F000E6F6F27
:1014A20005D001010B0E6E6F000E6F6FBED707EFF6
:1014B20015F0010E02012E6F030E2F6FC20E306F58
:1014C200000E316F94DC010E02012E6F100E2F6F91
:1014D200D1DC020E02012E6F030E2F6FB50E306F9C
:1014E200000E316F84DC020E02012E6F010E2F6F8F
:1014F2004AEC04F0020E02012E6F100E2F6F23EC45
:1015020004F0010171516F1902E16E5170194AE143
:10151200070E02012E6F000E2F6FCDEC04F000506B
:10152200011005E0050E01016E6F000E6F6F060ED1
:1015320002012E6F000E2F6FCDEC04F0005001104F
:1015420005E0070E01016E6F000E6F6F020E0201C1
:101552002E6F000E2F6FCDEC04F00050011005E04D
:10156200020E01016E6F000E6F6F030E02012E6FED
:10157200000E2F6FCDEC04F00050011012E0820E2D
:10158200006F71EC04F00050000A06E10C0E01013C
:101592006E6F000E6F6F05D001010D0E6E6F000EA3
:1015A2006F6FAFD707EF15F0010E02012E6F030E1A
:1015B2002F6F910E306F000E316F19DC010E020198
:1015C2002E6F100E2F6F56DC020E02012E6F030ECD
:1015D2002F6F7D0E306F000E316F09DC020E02019B
:1015E2002E6F010E2F6F4AEC04F0020E02012E6FD5
:1015F200100E2F6F23EC04F0010171516F1902E1FB
:101602006E5170194AE1070E02012E6F000E2F6F04
:10161200CDEC04F00050011005E0060E01016E6FE2
:10162200000E6F6F060E02012E6F000E2F6FCDECB3
:1016320004F00050011005E0080E01016E6F000E6B
:101642006F6F020E02012E6F000E2F6FCDEC04F0B1
:101652000050011005E0020E01016E6F000E6F6F67
:10166200030E02012E6F000E2F6FCDEC04F000501E
:10167200011012E0800E006F71EC04F00050000ABD
:1016820006E10E0E01016E6F000E6F6F05D00101B3
:101692000F0E6E6F000E6F6FAFD707EF15F0010ED2
:1016A20002012E6F030E2F6F730E306F000E316F1B
:1016B200F8EC06F0010E02012E6F100E2F6F3BECBC
:1016C20007F0020E02012E6F030E2F6F8C0E306F89
:1016D200000E316FF8EC06F0020E02012E6F010EC1
:1016E2002F6F4AEC04F0020E02012E6F100E2F6FC4
:1016F20023EC04F0010171516F1902E16E5170196E
:101702004AE1070E02012E6F000E2F6FCDEC04F09E
:101712000050011005E0070E01016E6F000E6F6FA1
:10172200060E02012E6F000E2F6FCDEC04F000505A
:10173200011005E0090E01016E6F000E6F6F020EBF
:1017420002012E6F000E2F6FCDEC04F0005001103D
:1017520005E0020E01016E6F000E6F6F030E0201B3
:101762002E6F000E2F6FCDEC04F00050011012E02E
:10177200830E006F71EC04F00050000A06E1100EB7
:1017820001016E6F000E6F6F05D00101110E6E6FB9
:10179200000E6F6FAFD707EF15F0010E02012E6F2B
:1017A200030E2F6F870E306F000E316FF8EC06F0CC
:1017B200010E02012E6F100E2F6F3BEC07F0020E8E
:1017C20002012E6F030E2F6FF10E306F000E316F7C
:1017D200F8EC06F0020E02012E6F010E2F6F4AEC9A
:1017E20004F0010171516F1902E16E5170193BE170
:1017F200070E02012E6F000E2F6FCDEC04F0005089
:10180200011005E0080E01016E6F000E6F6F020EEF
:1018120002012E6F000E2F6FCDEC04F0005001106C
:1018220005E0020E01016E6F000E6F6F030E0201E2
:101832002E6F000E2F6FCDEC04F00050011012E05D
:10184200840E006F71EC04F00050000A06E1120EE3
:1018520001016E6F000E6F6F05D00101130E6E6FE6
:10186200000E6F6FBED707EF15F0010E02012E6F4B
:10187200030E2F6FE70E306F000E316FF8EC06F09B
:10188200020E02012E6F080E2F6FA6EC06F0020E5A
:1018920002012E6F090E2F6F000E306F010E316F95
:1018A200F8EC06F0020E02012E6F100E2F6F99EC6B
:1018B20003F0010171516F1902E16E51701934E1A7
:1018C200040E02012E6F000E2F6FCDEC04F00050BB
:1018D200011005E00B0E01016E6F000E6F6F030E1B
:1018E20002012E6F000E2F6FCDEC04F0005001109C
:1018F2000BE0810E2E6FFF0E2F6F1EEC06F0050E11
:1019020001016E6F000E6F6F020E02012E6F000E4C
:101912002F6FCDEC04F00050011005E0050E01011F
:101922006E6F000E6F6FC5D707EF15F0010E020143
:101932002E6F030E2F6FF60E306F000E316FF8EC24
:1019420006F0020E02012E6F080E2F6FA6EC06F0B3
:10195200020E02012E6F090E2F6FE50E306F000E80
:10196200316FF8EC06F0020E02012E6F010E2F6F9E
:10197200F4EC05F0010171516F1902E16E51701919
:1019820033E1050E02012E6F000E2F6FCDEC04F035
:101992000050011005E00A0E01016E6F000E6F6F1C
:1019A200030E02012E6F000E2F6FCDEC04F00050DB
:1019B20001100AE0810E2E6F2F6B1EEC06F0050E51
:1019C20001016E6F000E6F6F020E02012E6F000E8C
:1019D2002F6FCDEC04F00050011005E0050E01015F
:1019E2006E6F000E6F6FC6D707EF15F0010E020182
:1019F2002E6F030E2F6FCE0E306F000E316FF8EC8C
:101A020006F0020E02012E6F090E2F6FCC0E306F00
:101A1200000E316FF8EC06F0020E02012E6F100E6E
:101A22002F6F99EC03F0010171516F1902E16E51B0
:101A3200701933E1040E02012E6F000E2F6FCDECF0
:101A420004F00050011005E00D0E01016E6F000E52
:101A52006F6F030E02012E6F000E2F6FCDEC04F09C
:101A6200005001100AE0820E2E6F2F6B1EEC06F062
:101A7200060E01016E6F000E6F6F020E02012E6FD5
:101A8200000E2F6FCDEC04F00050011005E0060EA1
:101A920001016E6F000E6F6FC6D707EF15F0010ED2
:101AA20002012E6F030E2F6FDB0E306F000E316FAF
:101AB200F8EC06F0020E02012E6F090E2F6FD80EFF
:101AC200306F000E316FF8EC06F0020E02012E6F3D
:101AD200010E2F6FF4EC05F0010171516F1902E153
:101AE2006E51701934E1050E02012E6F000E2F6F38
:101AF200CDEC04F00050011005E00C0E01016E6FF8
:101B0200000E6F6F030E02012E6F000E2F6FCDECD1
:101B120004F0005001100BE0820E2E6FFF0E2F6FAB
:101B22001EEC06F0060E01016E6F000E6F6F020EC4
:101B320002012E6F000E2F6FCDEC04F00050011049
:101B420005E0060E01016E6F000E6F6FC5D707EF3D
:101B520015F0010E02012E6F030E2F6F690E306F0A
:101B6200000E316FF8EC06F0020E02012E6F080E25
:101B72002F6F350E306F000E316FF8EC06F0020E4B
:101B820002012E6F100E2F6F99EC03F001017151BB
:101B92006F1902E16E51701934E1040E02012E6FC9
:101BA200000E2F6FCDEC04F00050011005E00F0E77
:101BB20001016E6F000E6F6F030E02012E6F000E99
:101BC2002F6FCDEC04F0005001100BE0829E800ECE
:101BD2002E6F2F6B1EEC06F0070E01016E6F000ECA
:101BE2006F6F020E02012E6F000E2F6FCDEC04F00C
:101BF2000050011005E0070E01016E6F000E6F6FBD
:101C0200C5D707EF15F0010E02012E6F030E2F6FDD
:101C12002B0E306F000E316FF8EC06F0020E02014F
:101C22002E6F080E2F6F3E0E306F000E316FF8ECE4
:101C320006F0020E02012E6F010E2F6FF4EC05F07A
:101C4200010171516F1902E16E51701935E1050EF2
:101C520002012E6F000E2F6FCDEC04F00050011028
:101C620005E00E0E01016E6F000E6F6F030E020192
:101C72002E6F000E2F6FCDEC04F0005001100CE01F
:101C8200828E800E2E6FFF0E2F6F1EEC06F0070E57
:101C920001016E6F000E6F6F020E02012E6F000EB9
:101CA2002F6FCDEC04F00050011005E0070E01018A
:101CB2006E6F000E6F6FC4D707EF15F0010E0201B1
:101CC2002E6F030E2F6F390E306F000E316FF8EC4E
:101CD20006F0020E02012E6F080E2F6F270E306FD4
:101CE200000E316FF8EC06F0020E02012E6F100E9C
:101CF2002F6F99EC03F0010171516F1902E16E51DE
:101D0200701933E1040E02012E6F000E2F6FCDEC1D
:101D120004F00050011005E0110E01016E6F000E7B
:101D22006F6F030E02012E6F000E2F6FCDEC04F0C9
:101D3200005001100AE0830E2E6F2F6B1EEC06F08E
:101D4200080E01016E6F000E6F6F020E02012E6F00
:101D5200000E2F6FCDEC04F00050011005E0080ECC
:101D620001016E6F000E6F6FC6D707EF15F0010EFF
:101D720002012E6F030E2F6F190E306F000E316F9E
:101D8200F8EC06F0020E02012E6F080E2F6F160EEF
:101D9200306F000E316FF8EC06F0020E02012E6F6A
:101DA200010E2F6FF4EC05F0010171516F1902E180
:101DB2006E51701934E1050E02012E6F000E2F6F65
:101DC200CDEC04F00050011005E0100E01016E6F21
:101DD200000E6F6F030E02012E6F000E2F6FCDECFF
:101DE20004F0005001100BE0830E2E6FFF0E2F6FD8
:101DF2001EEC06F0080E01016E6F000E6F6F020EF0
:101E020002012E6F000E2F6FCDEC04F00050011076
:101E120005E0080E01016E6F000E6F6FC5D707EF68
:101E220015F0010E02012E6F030E2F6F220E306F7E
:101E3200000E316FF8EC06F0020E02012E6F080E52
:101E42002F6F1E0E306F000E316FF8EC06F0020E8F
:101E520002012E6F100E2F6F99EC03F001017151E8
:101E62006F1902E16E51701933E1040E02012E6FF7
:101E7200000E2F6FCDEC04F00050011005E0130EA0
:101E820001016E6F000E6F6F030E02012E6F000EC6
:101E92002F6FCDEC04F0005001100AE0840E2E6F7B
:101EA2002F6B1EEC06F0090E01016E6F000E6F6FB4
:101EB200020E02012E6F000E2F6FCDEC04F00050C7
:101EC200011005E0090E01016E6F000E6F6FC6D79B
:101ED20007EF15F0010E02012E6F030E2F6F640E35
:101EE200306F000E316FF8EC06F0020E02012E6F19
:101EF200080E2F6F610E306F000E316FF8EC06F096
:101F0200020E02012E6F010E2F6FF4EC05F001019B
:101F120071516F1902E16E51701934E1050E02011F
:101F22002E6F000E2F6FCDEC04F00050011005E073
:101F3200120E01016E6F000E6F6F030E02012E6F03
:101F4200000E2F6FCDEC04F0005001100BE0840E58
:101F52002E6FFF0E2F6F1EEC06F0090E01016E6F41
:101F6200000E6F6F020E02012E6F000E2F6FCDEC6E
:101F720004F00050011005E0090E01016E6F000E21
:101F82006F6FC5D707EF15F0828082820201016B65
:101F9200026B0101FD6BFE6BFB6BFC6B776B786B6D
:101FA200000E785D02E1040E775D77E2010E020118
:101FB2002E6F010E2F6F440E306F000E316FF8EC52
:101FC20006F0020E02012E6F080E2F6F410E306FC7
:101FD200000E316FF8EC06F0020E0B6E450E0C6E21
:101FE200A90E0D6E0D2EFED70C2EFCD70B2EFAD796
:101FF20000000000020E02012E6F070E2F6F5C0E12
:10200200306F000E316FF8EC06F0020E0B6E450ECB
:102012000C6EA90E0D6E0D2EFED70C2EFCD70B2EBC
:10202200FAD700000000020E02012E6F060E2F6F7B
:10203200550E306F000E316FF8EC06F0020E0B6E8B
:10204200450E0C6EA90E0D6E0D2EFED70C2EFCD772
:102052000B2EFAD700000000020E02012E6F050EB1
:102062002F6F400E306F010E316FF8EC06F0020E4A
:102072000B6E450E0C6EA90E0D6E0D2EFED70C2E9C
:10208200FCD70B2EFAD700000000010E02013F6FB1
:10209200EDEC00F0774B782B83D7020E02012E6F06
:1020A200010E2F6FF4EC05F0830E0201006F71EC4C
:1020B20004F000C001F2000E026F840E006F71EC9A
:1020C20004F000C0FDF1000E0101FE6F810E02015D
:1020D200006F71EC04F000C0FBF1000E0101FC6F17
:1020E200010171516F1902E16E517019D8A4E5D145
:1020F200800E02011319006E800E005C08E1000ED2
:10210200125D05E1020E115D02E1D80E105DD8A04C
:10211200C5D1006B65EC07F000C018F201C019F2DE
:10212200000E026E036E940E046E110E056E000E0A
:10213200066E076ECFEC06F000C014F201C015F275
:1021420002C016F203C017F2FF0E046E030E056EF4
:10215200000E066E076E47EC05F000C014F201C0D7
:1021620015F202C016F203C017F2F40E005E010E61
:10217200015A000E025A035A00C014F201C015F2AD
:1021820002C016F203C017F20A0E046E000E056EAC
:10219200066E076E47EC05F000C014F201C015F29E
:1021A20002C016F203C017F200C03EF101C03FF1B7
:1021B200810E0201006F71EC04F00050000A17E179
:1021C2003EC100F03FC101F0090E046E000E056E23
:1021D2001FEC05F0050E046E000E056EC0EC03F058
:1021E200200E002401013E6F000E01203F6F3EC110
:1021F2002EF23FC12FF2090E0201306F020E316F33
:1022020038EC06F0010E2E6F030E2F6F090E306FA1
:10221200020E316FF8EC06F0010E02012E6F020E73
:102222002F6F360E306F010E316FF8EC06F0010E93
:1022320002012E6F090E2F6FA6EC06F0810E02012D
:10224200006F71EC04F00050000A0BE0010E2E6FDB
:102252000A0E2F6F3C0E306F010E316FF8EC06F054
:102262000BD0010E02012E6F0A0E2F6F3A0E306F45
:10227200010E316FF8EC06F0010E0201006F65EC01
:1022820007F000C025F201C026F2000E026E036EB6
:10229200940E046E110E056E000E066E076ECFECE4
:1022A20006F000C021F201C022F202C023F203C0F4
:1022B20024F2FF0E046E030E056E000E066E076E0C
:1022C20047EC05F000C021F201C022F202C023F265
:1022D20003C024F2F40E005E010E015A000E025AEF
:1022E200035A00C021F201C022F202C023F203C04D
:1022F20024F20A0E046E000E056E066E076E47EC9F
:1023020005F000C021F201C022F202C023F203C094
:1023120024F200C053F101C054F1810E0201006F9A
:1023220071EC04F00050000A17E153C100F054C1EF
:1023320001F0090E046E000E056E1FEC05F0050E8D
:10234200046E000E056EC0EC03F0200E00240101A5
:10235200536F000E0120546F53C12EF254C12FF25D
:10236200270E0201306F020E316F38EC06F0020EBA
:102372002E6F030E2F6F270E306F020E316FF8ECA7
:1023820006F0020E02012E6F020E2F6F4F0E306FFB
:10239200010E316FF8EC06F053513E5D4B6F545114
:1023A2003F594C6F010E02012E6F0F0E2F6F72EC10
:1023B20003F0010E02012E6F100E2F6F490E306FC7
:1023C200010E316FF8EC06F04BC12EF24CC12FF228
:1023D2001A0E0201306F020E316F38EC06F0020E57
:1023E2002E6F090E2F6F1A0E306F020E316FF8EC3E
:1023F20006F0020E02012E6F090E2F6FA6EC06F0F8
:10240200020E02012E6F0F0E2F6FA6EC06F0810E48
:102412000201006F71EC04F00050000A16E0020E97
:102422002E6F0A0E2F6F4D0E306F010E316FF8ECCA
:1024320006F0020E02012E6F100E2F6F340E306F57
:10244200010E316FF8EC06F016D0020E02012E6F6B
:102452000A0E2F6F110E306F010E316FF8EC06F07D
:10246200020E02012E6F100E2F6F0F0E306F010E33
:10247200316FF8EC06F00201106B116B126B136BEB
:10248200030E0B6E8A0E0C6E550E0D6E0D2EFED7C0
:102492000C2EFCD70B2EFAD700000000020E2E6F76
:1024A200000E2F6FCDEC04F00050011005E0829079
:1024B200829201016E6B6F6B13D6A8D2020E0201DB
:1024C2002E6F010E2F6FF4EC05F0010171516F199F
:1024D20002E16E517019D8A46BD1020E0201006F95
:1024E20065EC07F000C018F201C019F2000E026E8E
:1024F200036E940E046E110E056E000E066E076ECC
:10250200CFEC06F000C014F201C015F202C016F2C0
:1025120003C017F2FF0E046E030E056E000E066E68
:10252200076E47EC05F000C014F201C015F202C0BC
:1025320016F203C017F200C03EF101C03FF1820E55
:102542000201006F71EC04F00050000A0EE03EC17F
:1025520000F03FC101F0E80E046E030E056E1FECA1
:1025620005F000C03EF101C03FF13EC12EF23FC175
:102572002FF2090E306F020E316F38EC06F0010EA9
:102582002E6F050E2F6F090E306F020E316FF8ECB1
:1025920006F0010E02012E6F020E2F6F150E306F24
:1025A200010E316FF8EC06F0820E0201006F71EC41
:1025B20004F00050000A0BE1010E2E6F0A0E2F6F7D
:1025C200130E306F010E316FF8EC06F00BD0010ED6
:1025D20002012E6F090E2F6F0C0E306F010E316F3C
:1025E200F8EC06F0030E0201006F65EC07F000C084
:1025F20025F201C026F2000E026E036E940E046EE6
:10260200110E056E000E066E076ECFEC06F000C0CE
:1026120021F201C022F202C023F203C024F2FF0E13
:10262200046E030E056E000E066E076E47EC05F093
:1026320000C021F201C022F202C023F203C024F240
:1026420000C053F101C054F1820E0201006F71EC1F
:1026520004F00050000A0EE053C100F054C101F032
:10266200E80E046E030E056E1FEC05F000C053F178
:1026720001C054F153C12EF254C12FF2270E306F14
:10268200020E316F38EC06F0020E2E6F050E2F6F20
:10269200270E306F020E316FF8EC06F0020E0201C7
:1026A2002E6F020E2F6F040E306F010E316FF8EC99
:1026B20006F053513E5D4B6F54513F594C6F010E22
:1026C20002012E6F0F0E2F6F72EC03F0010E02014A
:1026D2002E6F100E2F6F020E306F010E316FF8EC5D
:1026E20006F04BC12EF24CC12FF21A0E0201306FCE
:1026F200020E316F38EC06F0020E2E6F090E2F6FAC
:102702001A0E306F020E316FF8EC06F0820E0201E3
:10271200006F71EC04F00050000A16E1020E2E6FF9
:102722000A0E2F6F0A0E306F010E316FF8EC06F0B1
:10273200020E02012E6F100E2F6F080E306F010E67
:10274200316FF8EC06F016D0020E02012E6F090E60
:102752002F6F310E306F010E316FF8EC06F0020E62
:1027620002012E6F0F0E2F6F2E0E306F010E316F82
:10277200F8EC06F0020E02012E6F000E2F6FCDEC68
:1027820004F00050011005E0010E01016E6F000E11
:102792006F6F030E0B6E8A0E0C6E550E0D6E0D2EA4
:1027A200FED70C2EFCD70B2EFAD7000000008DD6D8
:1027B2002DD1020E02012E6F010E2F6FF4EC05F0E7
:1027C200010171516F1902E16E5170195DE1800EC4
:1027D20002010819006E800E005C08E1000E075D20
:1027E20005E11E0E065D02E1840E055D3EE3040E68
:1027F200006F65EC07F000C003F201C004F2000EA6
:10280200015C02E1080E005C0CE2010E02012E6F77
:10281200090E2F6F280E306F010E316FF8EC06F0A3
:102822001FD0000E006E02010451005C02E1035150
:1028320010080BE2010E2E6F090E2F6F210E306F62
:10284200010E316FF8EC06F00BD0010E02012E6F73
:10285200080E2F6F190E306F010E316FF8EC06F073
:102862000201056B066B076B086B020E2E6F000EE2
:102872002F6FCDEC04F00050011005E0160E01019F
:102882006E6F000E6F6F9CD7C1D00101000E7119DF
:1028920002E1000E7019D8B441EF08F0000E711970
:1028A20002E1010E7019D8B489EF08F0000E711917
:1028B20002E1160E7019D8B4E4EF08F0000E711997
:1028C20002E1020E7019D8B443EF09F0000E71193B
:1028D20002E1030E7019D8B4A2EF09F0000E7119CB
:1028E20002E1040E7019D8B4EBEF09F0000E711971
:1028F20002E1050E7019D8B4F4EF09F0000E711957
:1029020002E1060E7019D8B45AEF0AF0000E7119DE
:1029120002E1070E7019D8B4D5EF0AF0000E711952
:1029220002E1080E7019D8B450EF0BF0000E7119C5
:1029320002E1090E7019D8B4CEEF0BF0000E711936
:1029420002E10A0E7019D8B436EF0CF0000E7119BC
:1029520002E10B0E7019D8B497EF0CF0000E71194A
:1029620002E10C0E7019D8B4F7EF0CF0000E7119D9
:1029720002E10D0E7019D8B450EF0DF0000E71196E
:1029820002E10E0E7019D8B4AAEF0DF0000E711903
:1029920002E10F0E7019D8B404EF0EF0000E711997
:1029A20002E1100E7019D8B45FEF0EF0000E71192B
:1029B20002E1110E7019D8B4B8EF0EF0000E7119C1
:1029C20002E1120E7019D8B412EF0FF0000E711955
:1029D20002E1130E7019D8B46BEF0FF0000E7119EB
:1029E20002E1140E7019D8B4C5EF0FF0000E711980
:1029F20002E1150E7019D8B461D5000E711902E109
:102A0200170E7019D8B4D5D641EF08F0010E0201A5
:0C2A12003F6FEDEC00F03BEF08F0FFD749
:102C3C0010EE16F0E50E006E020E016E1E0EF66E14
:0E2C4C002A0EF76E000EF86E79EC04F01200FE
:032A1E004F6E00F8
:052A21005247423100A4
:042A26004F66660091
:052A2A0052474232009A
:042A2F004F66660088
:0A2A33004261636B6C696768740010
:042A3D004F6666007A
:052A4100524742310084
:032A46004F6E00D0
:032A49002E2E002E
:102A4C005374617274696E672073656E736F727301
:012A5C000079
:072A5D002E2E2E2E2E2E005E
:052A64002E2E2E2E00B5
:032A69004F6E00AD
:052A6C00524742320058
:0A2A71004261636B6C6967687400D2
:0A2A7B004261636B6C6967687400C8
:0A2A85004261636B6C6967687400BE
:052A8F00524742310036
:052A9400524742310031
:0D2A9900566F6C7461676520556E6974009E
:0D2AA600566F6C7461676520556E69740091
:0A2AB30054656D7020556E697400C3
:0D2ABD00566F6C7461676520556E6974007A
:0A2ACA0054656D7020556E697400AC
:022AD4005600AA
:0A2AD600566F6C7420556E69740091
:032AE0006D560030
:0A2AE300566F6C7420556E69740084
:022AED004600A1
:0A2AEF0054656D7020556E69740087
:052AF9005247423200CB
:0A2AFE0054656D7020556E69740078
:022B0800430088
:022B0A00560073
:042B0C0056323A0003
:022B100056006D
:022B120056006B
:032B14006D5600FB
:022B1700460076
:022B1900460074
:022B1B00560062
:042B1D0056313A00F3
:082B2100556E6B6E6F776E00BC
:062B29004E6967687400AC
:012B2F0002A3
:062B300020446179200041
:032B36006D5600D9
:032B39006D5600D6
:022B3C00430054
:042B3E0054313A00D4
:022B420046004B
:022B440043004C
:022B460000008D
:092B48002E2E2E2E2E2E2E2E0014
:022B510054002E
:022B5300000080
:022B550043003B
:042B570054323A00BA
:022B5B00000078
:092B5D005475726E204F6666008B
:092B66002E2E2E2E2E2E2E2E00F6
:072B6F002E2E2E2E2E2E004B
:022B760000005D
:022B780001005A
:052B7A002E2E2E2E009E
:022B7F00000054
:102B81000000000000000000000000000000000044
:032B91002E2E00E5
:0D2B9400506C6561736520776169743A00CB
:0D2BA1004C696768742053656E736F720095
:0D2BAE004C696768742053656E736F720088
:092BBB0053657474696E677300C0
:092BC40053657474696E677300B7
:0A2BCD00566F6C746D65746572003C
:0A2BD700566F6C746D657465720032
:0C2BE100546865726D6F6D65746572005C
:0A2BED00566F6C746D65746572001C
:0C2BF700546865726D6F6D657465720046
:082C03000004040A0A111F007D
:082C0B000E0A0E00000000009B
:082C130000080C0E0E0C080075
:082C1B0000080C0E0C0800007B
:082C2300040E1F000000000078
:082C2B000002060E0E06020075
:082C330000000000001F0E0468
:020000040030CA
:0D000100081F1EFF0181FF0FC00FE00F4020
:00000001FF
